{
  "contractName": "TSCoin",
  "abi": [
    {
      "constant": true,
      "inputs": [],
      "name": "totalSupply",
      "outputs": [
        {
          "name": "",
          "type": "uint256"
        }
      ],
      "payable": false,
      "stateMutability": "view",
      "type": "function"
    },
    {
      "inputs": [],
      "payable": false,
      "stateMutability": "nonpayable",
      "type": "constructor"
    }
  ],
  "bytecode": "0x608060405234801561001057600080fd5b50630bebc200600081905550609e8061002a6000396000f300608060405260043610603f576000357c0100000000000000000000000000000000000000000000000000000000900463ffffffff16806318160ddd146044575b600080fd5b348015604f57600080fd5b506056606c565b6040518082815260200191505060405180910390f35b600054815600a165627a7a72305820b9652e99ff43d3fbf32d0a4244a7208361326f5b78ce7684200d15c54b25b59c0029",
  "source": "pragma solidity ^0.4.23;\n\ncontract TSCoin {\n    //Constructor\n    //Set total number of token\n    //Read total number of tokens\n    uint256 public totalSupply;\n\n    function TSCoin() public {\n        totalSupply = 200000000;\n    }\n\n}",
  "sourcePath": "/Users/mac/Documents/Project/cryptocurrency/contracts/TSCoin.sol",
  "compiler": {
    "name": "solc",
    "version": "0.4.24+commit.e67f0147.Emscripten.clang"
  },
  "schemaVersion": "2.0.1",
  "updatedAt": "2018-07-13T08:21:17.016Z"
}